:02000000FD29D8
:06000600000000000800EC
:0E000C00213083120313FD00FD0B0A280800AB
:10001A000F3083120313FC004730FD00FD0B132839
:0A002A00FC0B132800000000080082
:1000340083160313DC1B21288312861323288312BF
:10004400861783165C1B2928831206132B28831218
:1000540006178316DC1A312883128612332883127A
:10006400861683165C1A3928831206123B288312DB
:100074000616831655184128831206154328831241
:1000840006118615032086118316DC194C28831269
:1000940086134E288312861783165C1954288312FC
:1000A40006135628831206178316DC185C2883125D
:1000B40086125E288312861683165C1864288312BF
:1000C4000612662883120616831655186C288312A6
:1000D40006156E28831206118615032086118316D1
:0C00E400551C76280D2077280620080007
:1000F0008316031355105B08DC001A208316551471
:020100000800F5
:1001020083120313061C8828861C882889288128C4
:100112000230FB008630FC009930FD00FD0B8F2879
:0A012200FC0B8F28FB0B8F28080050
:0E012C00831203136F088A006E088200080019
:10013A00AF28803083160313D700C228C030D700F7
:10014A00C2289430D700C228D430D700C2288030C1
:10015A00D700C228831603135708013A03199E28A9
:10016A005708023A0319A3285708033A0319A6287D
:10017A005708043A0319A928AC285803F00057086D
:10018A00F0077008D7007008DC001A208316551093
:10019A00DA015A085907840000080319DC285A08AA
:1001AA00590784000008DB007820DA0ACE285514A3
:0201BA0008003B
:1001BC0081200618E4288120F001EB288618EA2813
:0C01CC0081200130F000EB28DF28080043
:1001D80083160313D6010130DC001A200130831680
:1001E800D7000130D8004C30D9009D2013290230A7
:1001F800D7000130D8004130D9009D201F29023096
:10020800D7000130D800A030D9009D201F29023026
:10021800D7000130D8006330D9009D201F29560827
:10022800003A0319FB285608013A0319032956080E
:10023800023A03190B29DE207008031924292C29F6
:100248008316D60A5608023C03182B29D601EF2834
:0202580008009C
:10025A00013083160313DC001A2001308316D700FD
:10026A000430D8003630D9009D200230D70007303C
:10027A00D8003030D9009D203330FB00BB30FC0061
:10028A00DF30FD00FD0B4729FC0B4729FB0B4729F3
:06029A0000000000080056
:1002A000831603138611061106128612061386138F
:1002B00083128611061186130613861206120D206C
:1002C0000D200D20861606168615032086110D209A
:1002D0008615032086110D208615032086110D201A
:1002E00006128615032086110D208615032086111F
:1002F000861286178615032086110D208613061692
:1003000086150320861106128615032086110D20FE
:1003100086150320861106168615032086110D20EA
:1003200006128615032086118617061786160616EE
:0E0330008615032086110D2083165514080033
:10033E0083120313ED0101308316DC001A20013005
:10034E008316D7000130D8002830D9009D20D3293C
:10035E0083160230D7000130D8002030D9009D20FE
:10036E00E42983160230D7000130D800BA30D90004
:10037E009D20E42983160230D7000130D800B0301A
:10038E00D9009D20E42983160230D7000130D80011
:10039E00A930D9009D20E42983126D08003A031973
:1003AE00AF296D08013A0319B8296D08023A0319ED
:1003BE00C1296D08033A0319CA29DE2070080319F2
:1003CE00E929F029ED0A6D08033C0318EF29ED0128
:0403DE00A229080048
:1003E20096208A110A128000840AEE0A0319EF0A83
:0803F200F003031DF1290800CE
:1003FA001E230730831203139F00831685010330DF
:10040A00860083128501831681130330FB000830AE
:10041A00FC007730FD00FD0B102AFC0B102AFB0BA9
:10042A00102A50210C30DC001A202D219F21EC20AB
:10043A00013083160313DC001A2001308316D7001B
:10044A000130D800C930D9009D2083126D08F1000F
:10045A000130F00071080319362AF00D7010FF3EC2
:10046A00302A70088500652A1F30FB007130FC00B5
:10047A001E30FD00FD0B3F2AFC0B3F2AFB0B3F2AD7
:10048A000000722A3330FB00BB30FC00DF30FD0075
:10049A00FD0B4D2AFC0B4D2AFB0B4D2A00000000D8
:1004AA00722A4830FB000630FC009F30FD00FD0B2D
:1004BA005C2AFC0B5C2AFB0B5C2A00000000722AF7
:1004CA0083165608003A0319392A5608013A0319BD
:1004DA00472A5608023A0319562A8312850101301F
:1004EA008316DC001A2001308316D7000130D800A9
:1004FA00C130D9009D200230D7000130D8005530D4
:10050A00D9009D201530FB004B30FC00BE30FD00A9
:10051A00FD0B8D2AFC0B8D2AFB0B8D2A00001A2A53
:02052A00952A10
:10063C00203084004D3083120313F0009B30EE0009
:10064C000230EF00F121A030840035308312F0002D
:0C065C00E830EE000230EF00F121080051
:1005360031342D34433468346F34703470340034BD
:100546004234653462346934643461343A34003494
:0C055600433468346F3470347034003467
:100562004D3461347134753469346E3461342034FD
:060572006434653400341E
:10057800503465347134753465346E3461342034E4
:060588003334733400342B
:10058E00543461346D3461346E3468346F343A34BB
:02059E00003427
:1005A00052346534743469347234653420346234BE
:0C05B00065346234693464346134003412
:1005BC004734723461346E346434653420343734E7
:0405CC007334003450
:1005D0004D346534643469346134203435347334D3
:0205E0000034E5
:0E05E20034342D345334753463346F340034A4
:1005F00033342D34473475346134723461346E349D
:04060000613400342D
:0E06040032342D3443346F34633461340034A7
:10061200503472346F346E3474346F342134003495
:10062200533465347234763469346E3464346F34DE
:080632002E342E342E34003466
:02400E00782117
:00000001FF
